:100000000C9471000C9483000C9483000C94830076
:100010000C9483000C9483000C9483000C94830054
:100020000C9483000C9483000C9483000C94830044
:100030000C9483000C9483000C9483000C94830034
:100040000C9483000C9483000C9483000C94830024
:100050000C9483000C9483000C9483000C94830014
:100060000C9483000C9483000C9483000C94830004
:100070000C9483000C9483000C9483000C948300F4
:100080000C9483000C9483000C9483000C948300E4
:100090000C9483000C9483000C9483000C948300D4
:1000A0000C9483000C9483000C9483000C948300C4
:1000B0000C948300084AD73B3BCE016E84BCBFFD45
:1000C000C12F3D6C74319ABD56833DDA3D00C77F28
:1000D00011BED9E4BB4C3E916BAAAABE00000080C1
:1000E0003F0011241FBECFEFD8E0DEBFCDBF21E01F
:1000F000A0E0B1E001C01D92A033B207E1F70E9479
:10010000A4030C943F070C9400001092B90088E4FB
:100110008093B800089594EA9093BC009091BC003D
:100120009923E4F79091B900987F903191F48093EE
:10013000BB0084E88093BC008091BC008823E4F776
:100140008091B900887F803431F0803231F482E0D0
:10015000089580E0089581E0089583E0089584E99A
:100160008093BC008091BC0084FDFCCF0895CF93A8
:10017000C82F84EA8093BC008091BC008823E4F7F8
:100180008091B900887F8830A1F7C093BB0084E8D4
:100190008093BC008091BC008823E4F78091B90073
:1001A000887F883119F00E94AF00E3CFCF91089586
:1001B0008093BB0084E88093BC008091BC008823BE
:1001C000E4F78091B900887F883221F0803321F4F0
:1001D00081E0089580E0089582E0089584EC8093A2
:1001E000BC008091BC008823E4F78091BB00089597
:1001F00084E88093BC008091BC008823E4F7809160
:10020000BB000895E1ECF0E0208128612083E2EC5E
:10021000F0E0208126602083DC01CB01880F991F4C
:10022000AA1FBB1F880F991FAA1FBB1F9C01AD01EE
:10023000220F331F441F551F220F331F441F551F0A
:1002400060E074E284EF90E00E941D078FEF820F60
:100250008093C400DA01C9010197A109B109892F6E
:100260009A2FAB2FBB278093C50008952FEF82E50F
:1002700097E0215080409040E1F700C0000080ED01
:100280000E94B70089E10E94D80087E00E94D80050
:100290000E94AF0080ED0E94B7008BE60E94D8005C
:1002A00081E00E94D8000E94AF0080ED0E94B7005C
:1002B0008AE10E94D80080E00E94D8000E94AF002E
:1002C00080ED0E94B7008BE10E94D80088E10E9477
:1002D000D8000E94AF0080ED0E94B70088E30E9422
:1002E000D80081E00E94D8000E94AF00089580ED00
:1002F0000E94B7008BE30E94D80081ED0E948B0022
:100300000895CF93DF930E9477010E94EE00C82FDB
:10031000D0E0DC2FCC270E94EE00BE01682B072E18
:10032000000C880B990B0E94C80560931401709310
:10033000150180931601909317010E94EE00C82FBB
:10034000D0E0DC2FCC270E94EE00BE01682B072EE8
:10035000000C880B990B0E94C80560930C017093E8
:100360000D0180930E0190930F010E94EE00C82FA3
:10037000D0E0DC2FCC270E94EE00BE01682B072EB8
:10038000000C880B990B0E94C805609300017093C4
:10039000010180930201909303010E94EE00C82F97
:1003A000D0E0DC2FCC270E94EE00BE01682B072E88
:1003B000000C880B990B0E94C8056093080170938C
:1003C000090180930A0190930B010E94EE00C82F4F
:1003D000D0E0DC2FCC270E94EE00BE01682B072E58
:1003E000000C880B990B0E94C80560930401709360
:1003F000050180930601909307010E94EE00C82F2B
:10040000D0E0DC2FCC270E94EE00BE01682B072E27
:10041000000C880B990B0E94C80560932001709313
:10042000210180932201909323010E94EE00C82FA6
:10043000D0E0DC2FCC270E94F800BE01682B072EED
:10044000000C880B990B0E94C805609310017093F3
:10045000110180931201909313010E94AF00DF916C
:10046000CF9108954F925F926F927F928F929F9259
:10047000AF92BF92CF92DF92EF92FF92CF93DF9332
:10048000CDB7DEB72A970FB6F894DEBF0FBECDBF4B
:1004900023E333E343E851E46091040170910501E3
:1004A00080910601909107010E941E052AE037ED18
:1004B00043E25CE30E94AC062091240130912501C7
:1004C00040912601509127010E943B044B015C01A1
:1004D0006093240170932501809326019093270156
:1004E00023E333E343E851E460912001709121015B
:1004F00080912201909123010E941E052AE037ED90
:1005000043E25CE30E94AC069B01AC0160912801D0
:100510007091290180912A0190912B010E943A0447
:1005200069837A838B839C8360932801709329016C
:1005300080932A0190932B0123E333E343E851E4B2
:10054000609110017091110180911201909113013D
:100550000E941E052AE037ED43E25CE30E94AC06F0
:100560009B01AC0160911C0170911D0180911E01E5
:1005700090911F010E943B0460931C0170931D0128
:1005800080931E0190931F01809114019091150199
:10059000A0911601B09117018D839E83AF83B88718
:1005A000BC01CD010E9490057A876987DB01BB23DE
:1005B00034F422273327261B370B3A8729874090AC
:1005C0000C0150900D0160900E0170900F01C3015D
:1005D000B2010E9490059B01772324F42227332740
:1005E000261B370BA985BA85A20FB31FBA87A98727
:1005F000C0900001D0900101E0900201F090030151
:10060000C701B6010E9490059B01772324F422279D
:100610003327261B370B89859A85820F931F8130DC
:1006200090420CF47CC0A7019601C301B2010E9464
:10063000BA0420E030E044E353E40E94AC062BED22
:100640003FE049E450E40E941E052B013C01609309
:1006500018017093190180931A0190931B0128E4EB
:1006600031EE4AE75FE3C501B4010E94AC064B01DD
:100670005C012AE037ED43EA5CE3C301B2010E946A
:10068000AC069B01AC01C501B4010E943B04609320
:100690002401709325018093260190932701A701DF
:1006A00096016D817E818F8198850E94BA0420E039
:1006B00030E044E353E40E94AC062BED3FE049E414
:1006C00050E40E941E054B015C0160932C01709365
:1006D0002D0180932E0190932F0128E431EE4AE7FB
:1006E0005FE369817A818B819C810E94AC066B01FA
:1006F0007C012AE037ED43EA5CE3C501B4010E94C6
:10070000AC069B01AC01C701B6010E943B0460939B
:1007100028017093290180932A0190932B012A9636
:100720000FB6F894DEBF0FBECDBFDF91CF91FF9023
:10073000EF90DF90CF90BF90AF909F908F907F9081
:100740006F905F904F9008950E9485000E9436013F
:1007500060E875E280E090E00E9402018FE084B9D9
:100760008FE39CE90197F1F700C000000E9481012E
:100770000E943202C0902801D0902901E0902A0105
:10078000F0902B0120E030E0A901C701B6010E94E2
:100790009F0618160CF041C089E085B98FE19EE4F0
:1007A0000197F1F700C0000088E085B98FE19EE471
:1007B0000197F1F700C000008CE085B98FE19EE45D
:1007C0000197F1F700C0000084E085B98FE19EE455
:1007D0000197F1F700C0000086E085B98FE19EE443
:1007E0000197F1F700C0000082E085B98FE19EE437
:1007F0000197F1F700C0000083E085B98FE19EE426
:100800000197F1F700C0000081E085B98FE19EE417
:100810000197F1F700C00000A3CF20E030E0A9016C
:10082000C701B6010E94190588230CF589E085B936
:100830008FE19EE40197F1F700C0000083E085B9E5
:100840008FE19EE40197F1F700C0000086E085B9D2
:100850008FE19EE40197F1F700C000008CE085B9BC
:100860008FE19EE40197F1F700C0000079CF89E0A5
:100870008BB976CF5058BB27AA270E9452040C94FC
:1008800065060E94570638F00E945E0620F039F493
:100890009F3F19F426F40C942D060EF4E095E7FB27
:1008A0000C942706E92F0E94760658F3BA176207C0
:1008B00073078407950720F079F4A6F50C94980641
:1008C0000EF4E0950B2EBA2FA02D0B01B90190016B
:1008D0000C01CA01A0011124FF27591B99F0593FAF
:1008E00050F4503E68F11A16F040A22F232F342FF7
:1008F0004427585FF3CF469537952795A795F04045
:100900005395C9F77EF41F16BA0B620B730B840B59
:10091000BAF09150A1F0FF0FBB1F661F771F881F11
:10092000C2F70EC0BA0F621F731F841F48F4879569
:1009300077956795B795F7959E3F08F0B0CF93955B
:10094000880F08F09927EE0F9795879508950E94D4
:10095000570660F080E891E009F49EEF0E945E0681
:1009600028F040E851E071F45EEF0CC00C942D06C5
:100970000C949806E92FE0780E94760640F3092E41
:10098000052AB1F3261737074807590738F00E2E06
:1009900007F8E02569F0E025E0640AC0EF6307F896
:1009A000009407FADB01B9019D01DC01CA01AD0128
:1009B000EF930E9435050E9465060E94EA045F914C
:1009C000552339F02BED3FE049E450FD49EC0C9400
:1009D0003B040895DF93DD27B92FBF7740E85FE33D
:1009E0001616170648075B0718F4D92F0E94A406AD
:1009F0009F938F937F936F930E941907E4EBF0E02E
:100A00000E9430060E9465062F913F914F915F91A1
:100A10000E94BF06DD2351F09058A2EA2AED3FE084
:100A200049EC5FE3D0785D270E945204DF910C947B
:100A300065060E94030608F481E008950E943205CD
:100A40000C9465060E945E0658F00E94570640F01E
:100A500029F45F3F29F00C94270651110C94990654
:100A60000C942D060E94760668F39923B1F3552362
:100A700091F3951B550BBB27AA27621773078407B1
:100A800038F09F5F5F4F220F331F441FAA1FA9F347
:100A900035D00E2E3AF0E0E832D091505040E69535
:100AA000001CCAF72BD0FE2F29D0660F771F881F96
:100AB000BB1F261737074807AB07B0E809F0BB0B89
:100AC000802DBF01FF2793585F4F3AF09E3F51059D
:100AD00078F00C9427060C9499065F3FE4F3983E57
:100AE000D4F3869577956795B795F7959F5FC9F786
:100AF000880F911D9695879597F90895E1E0660F07
:100B0000771F881FBB1F621773078407BA0720F07F
:100B1000621B730B840BBA0BEE1F88F7E0950895E8
:100B20000E9497056894B1110C94990608950E944B
:100B30007E0688F09F5798F0B92F9927B751B0F0EB
:100B4000E1F0660F771F881F991F1AF0BA95C9F751
:100B500014C0B13091F00E949806B1E008950C9451
:100B60009806672F782F8827B85F39F0B93FCCF304
:100B7000869577956795B395D9F73EF490958095CE
:100B8000709561957F4F8F4F9F4F0895E89409C0EE
:100B900097FB3EF490958095709561957F4F8F4FB0
:100BA0009F4F9923A9F0F92F96E9BB279395F695C6
:100BB000879577956795B795F111F8CFFAF4BB0F44
:100BC00011F460FF1BC06F5F7F4F8F4F9F4F16C0A8
:100BD000882311F096E911C0772321F09EE8872F32
:100BE000762F05C0662371F096E8862F70E060E0EE
:100BF0002AF09A95660F771F881FDAF7880F969567
:100C0000879597F90895990F0008550FAA0BE0E80A
:100C1000FEEF16161706E807F907C0F012161306BE
:100C2000E407F50798F0621B730B840B950B39F4FE
:100C30000A2661F0232B242B252B21F408950A2664
:100C400009F4A140A6958FEF811D811D089597F9A4
:100C50009F6780E870E060E008959FEF80EC089562
:100C6000DF93CF931F930F93FF92EF92DF927B015D
:100C70008C01689406C0DA2EEF010E94BF06FE01C7
:100C8000E894A5912591359145915591A6F3EF01F1
:100C90000E945204FE019701A801DA9469F7DF90DF
:100CA000EF90FF900F911F91CF91DF910895002455
:100CB0000A941616170618060906089500240A94C1
:100CC00012161306140605060895092E0394000C47
:100CD00011F4882352F0BB0F40F4BF2B11F460FFD6
:100CE00004C06F5F7F4F8F4F9F4F089557FD9058FF
:100CF000440F551F59F05F3F71F04795880F97FBE0
:100D0000991F61F09F3F79F0879508951216130699
:100D10001406551FF2CF4695F1DF08C016161706C8
:100D20001806991FF1CF86957105610508940895FD
:100D3000E894BB2766277727CB0197F908950E948F
:100D4000030608F48FEF08959B01AC0160E070E0AA
:100D500080E89FE30C941E050E94BF060C94650674
:100D60000E94570638F00E945E0620F0952311F08D
:100D70000C9427060C942D0611240C9499060E94BD
:100D8000760670F3959FC1F3950F50E0551F629F53
:100D9000F001729FBB27F00DB11D639FAA27F00DD4
:100DA000B11DAA1F649F6627B00DA11D661F829FFB
:100DB0002227B00DA11D621F739FB00DA11D621FE0
:100DC000839FA00D611D221F749F3327A00D611DFD
:100DD000231F849F600D211D822F762F6A2F1124DF
:100DE0009F5750409AF0F1F088234AF0EE0FFF1F12
:100DF000BB1F661F771F881F91505040A9F79E3F69
:100E0000510580F00C9427060C9499065F3FE4F39B
:100E1000983ED4F3869577956795B795F795E795BE
:100E20009F5FC1F7FE2B880F911D9695879597F9C7
:100E300008959B01AC010C94AC06A1E21A2EAA1BEA
:100E4000BB1BFD010DC0AA1FBB1FEE1FFF1FA2177A
:100E5000B307E407F50720F0A21BB30BE40BF50B77
:100E6000661F771F881F991F1A9469F76095709500
:100E7000809590959B01AC01BD01CF010895F89438
:020E8000FFCFA2
:00000001FF
