:020000020000FC
:040000000C94080054
:10000C000C94190048E04EBF4FEF4DBF1FEF14B9D1
:10001C000CE305B942E0409369005A9A41E04DBBAC
:10002C0078940C9417002D9801D0189582E03AE042
:10003C002FEA10E10F9303E600000000000000001F
:10004C000000000000000A95B9F7000000000F91B5
:10005C001A9581F70000000000000000000000006D
:10006C00000000002A9529F70000000000000000A5
:10007C00000000003A95E1F68A95C9F62D9A08958C
:00000001FF
