:100000000C945A000C9475000C9464000C946400D9
:100010000C9464000C9464000C9464000C946400D0
:100020000C9464000C9464000C9464000C946400C0
:100030000C9464000C9464000C9464000C946400B0
:100040000C9464000C9464000C9464000C946400A0
:100050000C9464000C9464000C9464000C94640090
:100060000C9464000C9464000C9464000C94640080
:100070000C9464000C9464000C9464000C94640070
:100080000C9464000C9464000C9464000C94640060
:100090000C9464000C9464000C9464000C94640050
:1000A0000C9464000C9464000C9464000C94640040
:1000B0000C94640011241FBECFEFD8E0DEBFCDBF8B
:1000C0000E9466000C9494000C94000080E284B9B5
:1000D0008CE385B98AB11AB884E08BB982E0809349
:1000E000690081E08DBB7894FFCF1F920F920FB60D
:1000F0000F9211242F938F939F9385B18F7D85B994
:100100002FEF85EE9AEA215080409040E1F700C041
:10011000000085B1806285B99F918F912F910F90DA
:0C0120000FBE0F901F901895F894FFCFB1
:00000001FF
