:100000000C945A000C946C000C946C000C946C00D2
:100010000C946C000C946C000C946C000C94980084
:100020000C946C000C946C000C946C000C946C00A0
:100030000C946C000C946E000C946C000C946C008E
:100040000C946C000C946C000C946C000C946C0080
:100050000C946C000C946C000C946C000C946C0070
:100060000C946C000C946C000C946C000C946C0060
:100070000C946C000C946C000C946C000C946C0050
:100080000C946C000C946C000C946C000C946C0040
:100090000C946C000C946C000C946C000C946C0030
:1000A0000C946C000C946C000C946C000C946C0020
:1000B0000C946C0011241FBECFEFD8E0DEBFCDBF83
:1000C00021E0A0E0B1E001C01D92A430B207E1F749
:1000D0000E94BF000C9406010C9400001F920F9226
:1000E0000FB60F9211242F938F939F938AEC91EC6C
:1000F0009093850080938400809102019091030188
:10010000019690930301809302018B3E934041F44A
:1001100095B188E0892785B91092030110920201F8
:100120009F918F912F910F900FBE0F901F90189558
:100130001F920F920FB60F9211242F938F939F93BC
:1001400085EA8093B30080910001909101010196AE
:100150009093010180930001883D974041F495B14F
:1001600084E0892785B910920101109200019F91C6
:100170008F912F910F900FBE0F901F9018958CE3C9
:1001800084B980E285B914BC16BC85B5816085BD93
:1001900010928000E1E8F0E08081816080838AEC49
:1001A00091EC9093850080938400EFE6F0E08081ED
:1001B0008160808385EA8093B300E0EBF0E080818A
:1001C00082608083E0E7F0E0808182608083E1EB01
:1001D000F0E0808184608083789440E050E00DC03E
:1001E000A89BFECF019621E025BB02C080E090E0F5
:1001F00085319105ACF34F5F5F4F413A8BE0580773
:10020000ACF395B180E1892785B9E7CFF894FFCFAA
:00000001FF
