S00F00004441345F4649582E7372656316
S11300000C9489000C94A6000C94A6000C94A600F1
S11300100C94A6000C94A6000C94A6000C94A600C4
S11300200C94A6000C94A6000C94A6000C94A600B4
S11300300C94A6000C94A6000C94A6000C94A600A4
S11300400C94A6000C94A6000C942E010C94A6000B
S11300500C94A6000C94A6000C94A6000C94A60084
S11300600C94A6000C94A6000C94A6000C94A60074
S11300700C94A6000C94A6000C94A6000C94A60064
S11300800C94A6000C94A6000C94A6000C94A60054
S11300900C94A6000C94A6000C94A6000C94A60044
S11300A00C94A6000C94A6000C94A6000C94A60034
S11300B00C94A60005020C020C020C020C020C02A9
S11300C00C020C020C020C020C020C020C020C02BC
S11300D0E301F0010C020C020C020C020C020C02F3
S11300E00C020C020C020C020C020C020C020C029C
S11300F00C020C02F601E7010C020C020C020C02C9
S11301000C02DC010C020C020C020C020C020C02AC
S1130110DF0111241FBECFEFD8E0DEBFCDBF12E058
S1130120A0E0B1E0E8EAFDE002C005900D92AC3138
S1130130B107D9F722E0ACE1B2E001C01D92A632CA
S1130140B207E1F70E945B010C94D2060C94000004
S1130150CF93C82F8A3019F48DE00E94A8008091B3
S1130160C00085FFFCCFC093C600CF910895809155
S1130170C0008823E4F78091C60008951092C5005A
S113018082E28093C400E0ECF0E0808182608083AE
S113019086E08093C200E1ECF0E088E18083808116
S11301A08068808308958CE191E00E94DA0389E2FB
S11301B091E00E94DA0389E391E00E94DA038AE481
S11301C091E00E94DA0387E691E00E94DA0388E76F
S11301D091E00E94DA038DE991E00E94DA0383EC56
S11301E091E00E94DA0308958DE49EE990938500DE
S11301F080938400089583E0809381000895E1E86A
S1130200F0E080818D7F8083EFE6F0E080818D7F58
S113021080830895ECE7F0E09081907F8F70892BC4
S113022080830895EAE7F0E0808180648083089504
S1130230EAE7F0E08081877780830895ECE7F0E0D7
S1130240808180648083EAE7F0E08081856A80832E
S1130250EBE7F0E080818660808308951F920F921F
S11302600FB60F9211242F933F934F935F936F9385
S11302707F938F939F93AF93BF93EF93FF9380915B
S11302802002909121020E94860380931D0281E046
S113029080931F02FF91EF91BF91AF919F918F9136
S11302A07F916F915F914F913F912F910F900FBE6E
S11302B00F901F90189588E284B985B90E94BE00FA
S11302C0E0E2F2E08EE091E09383828380E091E0CB
S11302D0918380830E94D300789480911C028111C1
S11302E00FC018C0A89BFECF019621E025BB02C019
S11302F080E090E084319105ACF34F5F5F4F02C022
S113030040E050E0483E83E0580794F395B188E01C
S1130310892785B980911E02882371F1B09B2CC076
S1130320609178007091790080E090E00E948502ED
S113033020E030E040EA50E40E94130320E030EC77
S11303404FE754E40E9413029F938F937F936F931C
S113035082EE91E09F938F930E94C4038DE49EE903
S1130360909385008093840081E086BB0F900F906A
S11303700F900F900F900F9080911F02882309F423
S1130380ACCF80911D021F928F9386EF91E09F93D3
S11303908F930E94C40380911D020F900F900F90C1
S11303A00F9090E0FC01E154F109EF32F105A0F562
S11303B0E65AFF4F0C9480030E94D30031C085B1EC
S11303C08F7D85B92DC085B1806285B929C014BCE3
S11303D016BC85B5816085BD81E080931C0220C078
S11303E085B1886085B910921C021AC00E941E0152
S11303F080E00E940A010E94F4000E94FB000E9417
S1130400120181E080931E020BC010921E020E9412
S1130410FF000E94180104C084E092E00E94DA0305
S113042010921F025ACF0E9427020C94D9020E94F4
S1130430D20258F00E94CB0240F029F45F3F29F029
S11304400C94C20251110C940D030C94C8020E9426
S1130450EA0268F39923B1F3552391F3951B550BE5
S1130460BB27AA2762177307840738F09F5F5F4F83
S1130470220F331F441FAA1FA9F335D00E2E3AF0C2
S1130480E0E832D091505040E695001CCAF72BD0DA
S1130490FE2F29D0660F771F881FBB1F261737072B
S11304A04807AB07B0E809F0BB0B802DBF01FF275D
S11304B093585F4F3AF09E3F510578F00C94C20276
S11304C00C940D035F3FE4F3983ED4F3869577953F
S11304D06795B795F7959F5FC9F7880F911D969516
S11304E0879597F90895E1E0660F771F881FBB1F72
S11304F0621773078407BA0720F0621B730B840B1F
S1130500BA0BEE1F88F7E0950895E89409C097FBAD
S11305103EF490958095709561957F4F8F4F9F4FD6
S11305209923A9F0F92F96E9BB279395F69587951A
S113053077956795B795F111F8CFFAF4BB0F11F4DD
S113054060FF1BC06F5F7F4F8F4F9F4F16C0882384
S113055011F096E911C0772321F09EE8872F762FBA
S113056005C0662371F096E8862F70E060E02AF0FB
S11305709A95660F771F881FDAF7880F96958795E7
S113058097F9089597F99F6780E870E060E008950F
S11305909FEF80EC089500240A9416161706180697
S11305A00906089500240A94121613061406050673
S11305B00895092E0394000C11F4882352F0BB0F04
S11305C040F4BF2B11F460FF04C06F5F7F4F8F4F67
S11305D09F4F089557FD9058440F551F59F05F3FA2
S11305E071F04795880F97FB991F61F09F3F79F051
S11305F087950895121613061406551FF2CF4695D3
S1130600F1DF08C0161617061806991FF1CF869554
S11306107105610508940895E894BB276627772738
S1130620CB0197F908950E9426030C94D9020E94E5
S1130630CB0238F00E94D20220F0952311F00C94E2
S1130640C2020C94C80211240C940D030E94EA0205
S113065070F3959FC1F3950F50E0551F629FF00111
S1130660729FBB27F00DB11D639FAA27F00DB11D2A
S1130670AA1F649F6627B00DA11D661F829F2227B3
S1130680B00DA11D621F739FB00DA11D621F839F3A
S1130690A00D611D221F749F3327A00D611D231F10
S11306A0849F600D211D822F762F6A2F11249F575E
S11306B050409AF0F1F088234AF0EE0FFF1FBB1F61
S11306C0661F771F881F91505040A9F79E3F510520
S11306D080F00C94C2020C940D035F3FE4F3983E47
S11306E0D4F3869577956795B795F795E7959F5FCA
S11306F0C1F7FE2B880F911D9695879597F908955C
S1130700EE0FFF1F0590F491E02D0994CF93DF9332
S1130710EC012B8120FF33C026FF0AC02F7B2B83E3
S11307208E819F8101969F838E838A8190E029C068
S113073022FF0FC0E881F9818081082E000C990BFB
S1130740009719F420622B831AC03196F983E88349
S11307500EC0EA85FB85099597FF09C02B81019698
S113076011F080E201C080E1822B8B8308C02E81CE
S11307703F812F5F3F4F3F832E83992702C08FEF26
S11307809FEFDF91CF910895A0E0B0E0EAECF3E0B1
S11307900C94AB06AE014B5F5F4FFA01619171910E
S11307A0AF0180912202909123020E940A04E2E0A8
S11307B00C94C7060F931F93CF93DF93E09122020B
S11307C0F0912302238121FF1BC08C01D0E0C0E003
S11307D0F80181918F016091220270912302DB0163
S11307E01896ED91FC911997882331F00995892B7E
S11307F079F3DFEFCFEFECCF8AE00995892B19F07D
S11308008FEF9FEF02C08D2F9C2FDF91CF911F910F
S11308100F910895ABE0B0E0E0E1F4E00C949B06A6
S11308206C017B018A01FC0117821682838181FF9E
S1130830CCC1CE0101963C01F6019381F70193FDF1
S1130840859193FF81917F01882309F4BAC1853290
S113085039F493FD859193FF81917F01853229F4C9
S1130860B60190E00E940106E7CF912C212C312C97
S1130870FFE1F315D8F08B3279F038F4803279F057
S11308808332A1F4232D20611DC08D3261F08033A9
S113089069F4232D216016C0832D8260382EE32D48
S11308A0E4603E2E2AC0F32DF8601DC037FC2DC035
S11308B020ED280F2A3040F08E32B9F436FC81C185
S11308C0232D2064322E19C036FE06C08AE0989E7D
S11308D0200D1124922E11C0EAE02E9E200D112429
S11308E0222EF32DF0623F2E08C08C3621F4832D86
S11308F08068382E02C0883641F4F70193FD859153
S113090093FF81917F018111B3CF982F9F7D9554DF
S1130910933028F40C5F1F4F9FE399830DC08336F7
S113092031F0833771F0833509F059C021C0F801E3
S1130930808189830E5F1F4F88248394912C5301F7
S113094013C02801F2E04F0E511CF801A080B180C1
S113095036FE03C0692D70E002C06FEF7FEFC50162
S11309600E94F6054C018201F32DFF773F2E16C03D
S1130970280122E0420E511CF801A080B18036FE0D
S113098003C0692D70E002C06FEF7FEFC5010E94C4
S1130990EB054C01F32DF0683F2E820133FC1BC0A4
S11309A0822D90E088169906B0F4B60180E290E0BA
S11309B00E9401062A94F4CFF50137FC859137FE95
S11309C081915F01B60190E00E94010621102A94F2
S11309D021E0821A91088114910471F7E8C08436E9
S11309E011F0893641F5F80137FE07C06081718145
S11309F0828193810C5F1F4F08C060817181072E33
S1130A00000C880B990B0E5F1F4FF32DFF763F2EC2
S1130A1097FF09C090958095709561957F4F8F4F92
S1130A209F4FF0683F2E2AE030E0A3010E943D066C
S1130A30882E861845C0853731F4232D2F7EB22E9B
S1130A402AE030E025C0932D997FB92E8F36C1F06E
S1130A5018F4883579F0B5C0803719F0883721F05B
S1130A60B0C0E92FE061BE2EB4FE0DC0FB2DF460D2
S1130A70BF2E09C034FE0AC0292F2660B22E06C03C
S1130A8028E030E005C020E130E002C020E132E09F
S1130A90F801B7FE07C060817181828193810C5F88
S1130AA01F4F06C06081718180E090E00E5F1F4F90
S1130AB0A3010E943D06882E8618FB2DFF773F2E4A
S1130AC036FE0DC0232D2E7FA22E891458F434FE39
S1130AD00BC032FC09C0832D8E7EA82E05C0B82C15
S1130AE0A32C03C0B82C01C0B92CA4FE0FC0FE0176
S1130AF0E80DF11D8081803321F49A2D997EA92E71
S1130B0009C0A2FE06C0B394B39404C08A2D8678AB
S1130B1009F0B394A3FC11C0A0FE06C0B21488F47B
S1130B20280C922C9B180EC0B21460F4B60180E21B
S1130B3090E00E940106B394F7CFB21418F42B1876
S1130B4002C0982C212CA4FE10C0B60180E390E0D2
S1130B500E940106A2FE17C0A1FC03C088E790E032
S1130B6002C088E590E0B6010CC08A2D867859F061
S1130B70A1FE02C08BE201C080E2A7FC8DE2B601B7
S1130B8090E00E940106891438F4B60180E390E0F5
S1130B900E9401069A94F7CF8A94F301E80DF11D9F
S1130BA08081B60190E00E9401068110F5CF2220D9
S1130BB009F442CEB60180E290E00E9401062A9434
S1130BC0F6CFF6018681978102C08FEF9FEF2B96B7
S1130BD0E2E10C94B706FC010590615070400110ED
S1130BE0D8F7809590958E0F9F1F0895FC01615052
S1130BF0704001900110D8F7809590958E0F9F1F3B
S1130C0008950F931F93CF93DF93FB01238121FD5D
S1130C1003C08FEF9FEF2CC022FF16C0468157817F
S1130C20248135814217530744F4A081B1819D0189
S1130C302F5F3F4F318320838C93268137812F5F31
S1130C403F4F3783268314C08B01EC01FB010084E2
S1130C50F185E02D0995892BE1F6D80116968D9141
S1130C609C911797019617969C938E931697CE0195
S1130C70DF91CF911F910F910895FA01AA2728308F
S1130C8051F1203181F1E8946F936E7F6E5F7F4F55
S1130C908F4F9F4FAF4FB1E03ED0B4E03CD0670FD1
S1130CA0781F891F9A1FA11D680F791F8A1F911D24
S1130CB0A11D6A0F711D811D911DA11D20D009F474
S1130CC068943F912AE0269F11243019305D3193B6
S1130CD0DEF6CF010895462F4770405D4193B3E09F
S1130CE00FD0C9F7F6CF462F4F70405D4A3318F046
S1130CF0495D31FD4052419302D0A9F7EACFB4E0F7
S1130D00A6959795879577956795BA95C9F70097AE
S1130D106105710508959B01AC010A2E069457954F
S1130D20479537952795BA95C9F7620F731F841FA6
S1130D30951FA01D08952F923F924F925F926F923C
S1130D407F928F929F92AF92BF92CF92DF92EF9257
S1130D50FF920F931F93CF93DF93CDB7DEB7CA1BD8
S1130D60DB0B0FB6F894DEBF0FBECDBF09942A8803
S1130D70398848885F846E847D848C849B84AA84AB
S1130D80B984C884DF80EE80FD800C811B81AA8138
S1130D90B981CE0FD11D0FB6F894DEBF0FBECDBF03
S10B0DA0ED010895F894FFCF62
S1130DA800000001000000000000B700000000007F
S1130DB8000200000000A800000000000A48656C5A
S1130DC870204D656E753A20006F202D2054757281
S1130DD86E206F6E20504235004F202D20547572BE
S1130DE86E206F6666205042350062202D204D61CA
S1130DF86B652050423320626C696E6B20666F729B
S1130E0820302E3332730050202D205475726E20FA
S1130E186F6666205042330061202D204765742098
S1130E28706F74656E74696F6D6574657220766130
S1130E386C756520696E20766F6C74730041202D83
S1130E482053746F702067657474696E6720706FBF
S1130E5874656E74696F6D657465722076616C75FE
S1130E6865730068202D205072696E742074686957
S1130E78732068656C70206D656E752061676169A3
S1130E886E004144432076616C7565203D20252E13
S1130E98326620560A00596F752077726F74652080
S1130EA825630A00436F6D6D616E64206E6F742054
S10F0EB87265636F676E697A65640D00F3
S9030000FC
